:020000040800F2
:1000000000800020B5310008992700089F270008CC
:10001000A5270008AB270008B12700080000000052
:10002000000000000000000000000000B7270008EA
:10003000C527000800000000D3270008E1270008BA
:1000400005320008053200080532000805320008B4
:1000500005320008053200080532000805320008A4
:100060000532000805320008053200080532000894
:1000700005320008D5AF0008053200080532000837
:100080000532000805320008053200080532000874
:100090000532000805320008053200080532000864
:1000A000ED27000805320008053200080532000877
:1000B000053200080128000805320008152800084C
:1000C0002928000805320008053200083D280008EC
:1000D00005320008053200085128000805320008E2
:1000E0000532000805320008053200080532000814
:1000F0000532000805320008053200080532000804
:1001000000000000000000000000000005320008B0
:100110000532000805320008652800087928000823
:1001200005320008053200080532000805320008D3
:100130000532000805320008000000000000000041
:1001400005320008053200080532000800000000F2
:10015000000000000000000000000000000000009F
:100160000000000000000000053200080532000811
:100170000532000800000000000000000000000040
:08018000000000000532000838
:1001900010B5054C237833B9044B13B10448AFF3C1
:1001A00000800123237010BD8802002000000000A1
:1001B00054EF000808B5034B1BB103490348AFF3E4
:1001C000008008BD000000008C02002054EF0008F1
:1001D000034613F8012B002AFBD1181A0138704787
:1001E00001F0FF01102A2BDB10F0070F08D010F8E8
:1001F000013B013A8B422DD010F0070F42B3F6D1EC
:10020000F0B441EA012141EA014122F007047FF004
:1002100000070023F0E80256083C85EA010586EA5B
:10022000010685FA47F5A3FA87F586FA47F6A5FA97
:1002300087F68EB9EED1F0BC01F0FF0102F00702A3
:1002400032B110F8013B013A83EA010313B1F8D14E
:100250000020704701387047002D06BF354603382F
:10026000073815F0010F07D1013015F4807F02BF68
:10027000013015F4C03F0130F0BC0138704700BFB9
:1002800081F0004102E000BF83F0004330B54FEA47
:1002900041044FEA430594EA050F08BF90EA020FB4
:1002A0001FBF54EA000C55EA020C7FEA645C7FEA47
:1002B000655C00F0E2804FEA5454D4EB5555B8BF6A
:1002C0006D420CDD2C4480EA020281EA030382EADB
:1002D000000083EA010180EA020281EA0303362D6D
:1002E00088BF30BD11F0004F4FEA01314FF4801C40
:1002F0004CEA113102D0404261EB410113F0004F52
:100300004FEA03334CEA133302D0524263EB430308
:1003100094EA050F00F0A780A4F10104D5F1200EA6
:100320000DDB02FA0EFC22FA05F2801841F1000101
:1003300003FA0EF2801843FA05F359410EE0A5F1D5
:1003400020050EF1200E012A03FA0EFC28BF4CF006
:10035000020C43FA05F3C01851EBE37101F00045BC
:1003600007D54FF0000EDCF1000C7EEB00006EEBC9
:100370000101B1F5801F1BD3B1F5001F0CD3490853
:100380005FEA30004FEA3C0C04F101044FEA4452AA
:1003900012F5800F80F09A80BCF1004F08BF5FEA31
:1003A000500C50F1000041EB045141EA050130BD11
:1003B0005FEA4C0C404141EB0101013C28BFB1F523
:1003C000801FE9D291F0000F04BF01460020B1FA6E
:1003D00081F308BF2033A3F10B03B3F120020CDA41
:1003E0000C3208DD02F1140CC2F10C0201FA0CF01F
:1003F00021FA02F10CE002F11402D8BFC2F1200C84
:1004000001FA02F120FA0CFCDCBF41EA0C01904039
:10041000E41AA2BF01EB0451294330BD6FEA040482
:100420001F3C1CDA0C340EDC04F11404C4F120026D
:1004300020FA04F001FA02F340EA030021FA04F37F
:1004400045EA030130BDC4F10C04C4F1200220FAD6
:1004500002F001FA04F340EA0300294630BD21FA14
:1004600004F0294630BD94F0000F83F4801306BFDA
:1004700081F480110134013D4EE77FEA645C18BFCE
:100480007FEA655C29D094EA050F08BF90EA020F65
:1004900005D054EA000C04BF1946104630BD91EA5D
:1004A000030F1EBF0021002030BD5FEA545C05D160
:1004B0004000494128BF41F0004130BD14F580049F
:1004C0003CBF01F5801130BD01F0004545F0FE4113
:1004D00041F470014FF0000030BD7FEA645C1ABF48
:1004E000194610467FEA655C1CBF0B46024650EA7F
:1004F000013406BF52EA033591EA030F41F40021AB
:1005000030BD00BF90F0000F04BF0021704730B530
:100510004FF4806404F132044FF000054FF0000105
:1005200050E700BF90F0000F04BF0021704730B5C6
:100530004FF4806404F1320410F0004548BF40429B
:100540004FF000013EE700BF42004FEAE2014FEAF0
:1005500031014FEA02701FBF12F07F4393F07F4FCB
:1005600081F06051704732F07F4208BF704793F0CE
:100570007F4F04BF41F40021704730B54FF46074E1
:1005800001F0004521F000411CE700BF50EA0102E4
:1005900008BF704730B54FF000050AE050EA01028D
:1005A00008BF704730B511F0004502D5404261EBFD
:1005B00041014FF4806404F132045FEA915C3FF43E
:1005C000D8AE4FF003025FEADC0C18BF03325FEADB
:1005D000DC0C18BF033202EBDC02C2F1200300FA8C
:1005E00003FC20FA02F001FA03FE40EA0E0021FAB1
:1005F00002F11444BDE600BF70B54FF0FF0C4CF49F
:10060000E06C1CEA11541DBF1CEA135594EA0C0F50
:1006100095EA0C0F00F0DEF82C4481EA030621EA8B
:100620004C5123EA4C5350EA013518BF52EA0335C6
:1006300041F4801143F4801338D0A0FB02CE4FF078
:100640000005E1FB02E506F00042E0FB03E54FF0A8
:100650000006E1FB03569CF0000F18BF4EF0010EA0
:10066000A4F1FF04B6F5007F64F5407404D25FEA9C
:100670004E0E6D4146EB060642EAC62141EA55514F
:100680004FEAC52040EA5E504FEACE2EB4F1FD0C91
:1006900088BFBCF5E06F1ED8BEF1004F08BF5FEA0F
:1006A000500E50F1000041EB045170BD06F00046C1
:1006B00046EA010140EA020081EA0301B4EB5C046E
:1006C000C2BFD4EB0C0541EA045170BD41F4801166
:1006D0004FF0000E013C00F3AB8014F1360FDEBF8B
:1006E000002001F0004170BDC4F10004203C35DA67
:1006F0000C341BDC04F11404C4F1200500FA05F3EA
:1007000020FA04F001FA05F240EA020001F000428A
:1007100021F0004110EBD37021FA04F642EB060100
:100720005EEA430E08BF20EAD37070BDC4F10C042A
:10073000C4F1200500FA04F320FA05F001FA04F2EE
:1007400040EA020001F0004110EBD37041F10001DA
:100750005EEA430E08BF20EAD37070BDC4F12005E5
:1007600000FA05F24EEA020E20FA04F301FA05F24D
:1007700043EA020321FA04F001F0004121FA04F2F5
:1007800020EA020000EBD3705EEA430E08BF20EAC5
:10079000D37070BD94F0000F0FD101F000464000FF
:1007A00041EB010111F4801F08BF013CF7D041EA81
:1007B000060195F0000F18BF704703F00046520085
:1007C00043EB030313F4801F08BF013DF7D043EA56
:1007D0000603704794EA0C0F0CEA135518BF95EA0C
:1007E0000C0F0CD050EA410618BF52EA4306D1D193
:1007F00081EA030101F000414FF0000070BD50EAB2
:10080000410606BF1046194652EA430619D094EA3B
:100810000C0F02D150EA013613D195EA0C0F05D125
:1008200052EA03361CBF104619460AD181EA030179
:1008300001F0004141F0FE4141F470014FF0000031
:1008400070BD41F0FE4141F4780170BD70B54FF0CC
:10085000FF0C4CF4E06C1CEA11541DBF1CEA13554C
:1008600094EA0C0F95EA0C0F00F0A7F8A4EB05042E
:1008700081EA030E52EA03354FEA013100F0888025
:100880004FEA03334FF0805545EA131343EA1263EE
:100890004FEA022245EA111545EA10654FEA0026A3
:1008A0000EF000419D4208BF964244F1FD0404F55C
:1008B000407402D25B084FEA3202B61A65EB0305B8
:1008C0005B084FEA32024FF480104FF4002CB6EB75
:1008D000020E75EB030E22BFB61A754640EA0C00F5
:1008E0005B084FEA3202B6EB020E75EB030E22BF35
:1008F000B61A754640EA5C005B084FEA3202B6EB76
:10090000020E75EB030E22BFB61A754640EA9C0034
:100910005B084FEA3202B6EB020E75EB030E22BF04
:10092000B61A754640EADC0055EA060E18D04FEAC2
:10093000051545EA16754FEA06164FEAC30343EA62
:1009400052734FEAC2025FEA1C1CC0D111F4801F2F
:100950000BD141EA00014FF000004FF0004CB6E728
:1009600011F4801F04BF01430020B4F1FD0C88BFC7
:10097000BCF5E06F3FF6AFAEB5EB030C04BFB6EBD2
:10098000020C5FEA500C50F1000041EB045170BDC5
:100990000EF0004E4EEA113114EB5C04C2BFD4EBF2
:1009A0000C0541EA045170BD41F480114FF0000E76
:1009B000013C90E645EA060E8DE60CEA135594EAF2
:1009C0000C0F08BF95EA0C0F3FF43BAF94EA0C0FF5
:1009D0000AD150EA01347FF434AF95EA0C0F7FF46A
:1009E00025AF104619462CE795EA0C0F06D152EABE
:1009F00003353FF4FDAE1046194622E750EA4106A2
:100A000018BF52EA43067FF4C5AE50EA41047FF4B2
:100A10000DAF52EA43057FF4EBAE12E74FF0FF3C17
:100A200006E000BF4FF0010C02E000BF4FF0010CE8
:100A30004DF804CD4FEA410C7FEA6C5C4FEA430C61
:100A400018BF7FEA6C5C1BD001B050EA410C0CBFB0
:100A500052EA430C91EA030F02BF90EA020F002012
:100A6000704710F1000F91EA030F58BF994208BF79
:100A700090422CBFD8176FEAE37040F00100704736
:100A80004FEA410C7FEA6C5C02D150EA013C07D18D
:100A90004FEA430C7FEA6C5CD6D152EA033CD3D0D8
:100AA0005DF8040B704700BF8446104662468C46D2
:100AB0001946634600E000BF01B5FFF7B7FF002805
:100AC00048BF10F1000F01BD4DF808EDFFF7F4FF2E
:100AD0000CBF012000205DF808FB00BF4DF808EDB9
:100AE000FFF7EAFF34BF012000205DF808FB00BFDC
:100AF0004DF808EDFFF7E0FF94BF012000205DF8FE
:100B000008FB00BF4DF808EDFFF7CEFF94BF0120B2
:100B100000205DF808FB00BF4DF808EDFFF7C4FFAB
:100B200034BF012000205DF808FB00BF4FEA410CF4
:100B30007FEA6C5C02D150EA013C0AD14FEA430CD7
:100B40007FEA6C5C02D152EA033C02D14FF0000014
:100B500070474FF0010070474FEA410212F5001252
:100B600015D211D56FF47873B3EB625212D94FEAF4
:100B7000C12343F0004343EA505311F0004F23FADE
:100B800002F018BF404270474FF00000704750EA33
:100B9000013005D111F0004008BF6FF000407047F0
:100BA0004FF00000704700BF4FEA4102B2F1E0434E
:100BB00024BFB3F5001CDCF1FE5C0DD901F0004C44
:100BC0004FEAC0024CEA5070B2F1004F40EB830094
:100BD00008BF20F00100704711F0804F21D113F1C0
:100BE0003872BCBF01F00040704741F480114FEAF9
:100BF0005252C2F11802C2F1200C10FA0CF320FA82
:100C000002F018BF40F001004FEAC1234FEAD3239E
:100C100003FA0CFC40EA0C0023FA02F34FEA430308
:100C2000CCE77FEA625307D150EA01331EBF4FF091
:100C3000FE4040F44000704701F0004040F0FE40AC
:100C400040F40000704700BF80B500AF01220121D1
:100C50000C4803F037FF012208210A4803F032FF55
:100C600001220421074803F02DFF0122022105483B
:100C700003F028FF012210214FF0904003F022FFE3
:100C800000BF80BD0008004880B500AF00220121F0
:100C9000054803F017FF01224FF48051034803F089
:100CA00011FF00BF80BD00BF0008004800040048DD
:100CB00080B500AF01220121124803F003FF00229A
:100CC0004FF48051104803F0FDFE012208210D4829
:100CD00003F0F8FE012204210A4803F0F3FE01228A
:100CE0000221084803F0EEFE00224FF4007106488E
:100CF00003F0E8FE00220221034803F0E3FE00BFF8
:100D000080BD00BF000800480004004884B080B5E2
:100D100098B014AF07F1180C8CE80F00022009F00E
:100D20007BFC0346022B66D1FB6F1B7883F001032B
:100D3000DBB2002B0CD002F04DF9FB6F01221A70D0
:100D400002F07EF90021D7F8800002F001FA53E0AA
:100D5000D7F880301B78013B062B4DD801A252F802
:100D600023F000BF810D00088B0D0008950D0008D1
:100D70009F0D0008A90D0008B30D0008BD0D000867
:100D80007B6F4FF496725A8036E07B6F4FF4AF72F0
:100D90005A8031E07B6F4FF4C8725A802CE07B6F31
:100DA0004FF496729A8027E07B6F4FF4AF729A806F
:100DB00022E07B6F4FF4C8729A801DE0FB6F002227
:100DC0001A7002F007F901F039FE0023FB6007E01A
:100DD000FB68DBB2184602F08FF8FB680133FB605A
:100DE0007B6F5B781A46FB689342F1DBD7F8803063
:100DF00001221A7000E000BF022009F00DFC03463A
:100E0000032B1AD13B1D7F4918460BF037FE3A1DC4
:100E10000323B421DC200AF099FC00231293D2238F
:100E20001193684607F12803442219460BF0A6F9EE
:100E300007F118030FCB00F06DF9002009F0ECFB6F
:100E40000346022B1AD1D7F880301B78012B15D915
:100E5000FB6F1B78002B11D0D7F880301B78013B3B
:100E6000DAB2D7F880301A70D7F880301B780133A7
:100E7000DBB21946D7F8800002F06AF9012009F0C8
:100E8000CBFB0346022B1AD1D7F880301B78062BF8
:100E900015D8FB6F1B78002B11D0D7F880301B784A
:100EA0000133DAB2D7F880301A70D7F880301B7867
:100EB000013BDBB21946D7F8800002F049F9042063
:100EC00009F0AAFB0346022B1ED108214E4803F06D
:100ED000E1FD0346002B0CD0012B17D10022082185
:100EE000494803F0EFFD01221021484803F0EAFDD4
:100EF0000DE001220821444803F0E4FD0022102106
:100F0000424803F0DFFD02E000BF00E000BF062022
:100F100009F082FB0346022B1AD102213A4803F062
:100F2000B9FD0346002B0AD0012B13D10022022168
:100F3000354803F0C7FDFB6E01221A700BE0012259
:100F40000221314803F0BEFDFB6E00221A7002E060
:100F500000BF00E000BF072009F05EFB0346022B44
:100F60001AD10421284803F095FD0346002B0AD02E
:100F7000012B13D100220421234803F0A3FD3B6F72
:100F800001221A700BE0012204211F4803F09AFD90
:100F90003B6F00221A7002E000BF00E000BF032098
:100FA00009F03AFB0346022B0FD1FB6F1B7883F04D
:100FB0000103DBB2002B08D07B6F5B78184601F091
:100FC0009BFF03461A467B6F5A70052009F024FBED
:100FD0000346022B02D1BB6F78221A703B6F1A783E
:100FE000FB6E1B78194689000B445B00DBB213448F
:100FF000DAB27B6F1A7000BF1037BD46BDE8804083
:1010000004B0704770EF0008000800480004004872
:1010100084B080B584B002AF07F1100C8CE80F00EB
:101020000623BB807B6E012B02D101237B7101E083
:1010300000237B710023FB703A1D052300930223DC
:10104000002107F1100003F0E5FD052002F042F950
:10105000FA1C052300930323002107F1100003F07D
:10106000CDFE00BF0837BD46BDE8804004B07047E4
:1010700084B090B587B002AF07F1200484E80F0078
:10108000234A07F1080392E803001860043319703B
:101090000323FB71FA1D052300930123002107F1AF
:1010A000200003F0B7FD052002F014F907F1080253
:1010B000052300930523002107F1200003F09EFE85
:1010C000387A797ABA7AFC7A3B7B0093234600F02F
:1010D0005BF80346002B14D07B7A9BB21B029AB2BA
:1010E0003B7A9BB213449AB27B6F1A80FB7A9BB215
:1010F0001B0299B2BB7A9AB27B6F02330A4492B256
:101100001A8000BF1437BD46BDE8904004B0704758
:1011100090EF000884B080B586B002AF07F1180CDC
:101120008CE80F0097F86C2097F870301344DBB20E
:10113000DB43FB730B233B7297F86C307B7297F8A1
:101140007030BB72FB7BFB720023FB7107F108025E
:101150000A2300930423002107F1180003F05AFD2D
:10116000052002F0B7F8FA1D0A230093012300219D
:1011700007F1180003F042FEFB7918461037BD4610
:10118000BDE8804004B0704790B484B000AF04461E
:10119000084611461A462346FB710346BB710B46AF
:1011A0007B7113463B710023FB73FA79BB791344BF
:1011B000DAB27B791344DAB23B791344FB73FB7BDD
:1011C000DB43FB733A7EFB7B9A4201D1012300E0B3
:1011D000002318461037BD4690BC7047B0B5A0B08C
:1011E00020AF02F011F800F051FA00F0D5FD00F048
:1011F000ABFA00F03BFB00F079FB00F0F3FB00F0F2
:101200004BFC00F047FD00F07FFC00F095FD00F086
:10121000ABFB00F0AFFC0AF0F3F900200AF048FA4B
:1012200009F024FA0021B24802F06EFBB14B002213
:101230009A63B14B00229A63B04806F0D7FDB048DC
:1012400006F0D4FDAF4806F0D1FD0421AB4806F00E
:101250008FFE0421AC4806F08BFEAC4B00221A70C6
:10126000AA4B00225A70A94B4FF4C8725A80A74B60
:101270004FF4C8729A80A64C01231193684604F17A
:101280001003442219460AF079FF94E80F00FFF793
:10129000BFFE974802F022FA01F0D0FBFFF7D4FC22
:1012A00009F076F9082009F0B7F90346022B32D18C
:1012B000984B1B78002B0CD1FFF7E6FC954B0122D5
:1012C0001A70002001F018FE03461A468F4B5A7020
:1012D00021E0904B00221A70FFF7EAFC032001F096
:1012E0000BFE03461A46894B5A70884B00221A702F
:1012F000894B00221A70894B00221A707E4B002203
:101300009A63874B00221A70864B00221A7001F0F4
:1013100061FE01F093FB7F4B1B78002B00F09E8158
:101320007B4C814B1193684604F11003442219460B
:101330000AF024FF94E80F00FFF79AFE7B4C7C4BE9
:101340001F937C4B1E93684604F1100378221946C4
:101350000AF014FF94E80F0000F000FF6C4C764B8D
:101360001693704B15936E4B1493684B13936B4B02
:101370001293694B1193684604F1100344221946F5
:101380000AF0FCFE94E80F00FFF7C0FC6B4B1B78E3
:10139000092B25D16A4B1B881A466A4B1B7892FB96
:1013A000F3F39AB2684B1A80684B1B881A46654B58
:1013B0001B7892FBF3F39AB2654B1A80654BD3ED21
:1013C000006A604B1B7807EE903AB8EEE77AC6EEFB
:1013D000877AFCEEE77A17EE903A9AB25E4B1A8063
:1013E000504B1B7883F00103DBB2002B15D0564B1A
:1013F0001888504B19884E4B1A88574B1C88544BF1
:101400001B88424D01950093234601F0E7FB3F4BBB
:101410001B78184601F0EEFC02E03C4801F0E2FDCA
:101420003A4B1B780B2B00F2F58001A252F823F007
:101430006114000879140008151600081516000834
:1014400015160008151600081516000815160008D0
:101450001516000815160008BB14000877150008BB
:1014600000224FF400713D4803F02CFB00220221C2
:101470003A4803F027FBD9E000224FF400713748C7
:1014800003F020FB324B1B881A46204B5B88194621
:10149000334B1B78CB1A9A4209DA324B1B78002B5C
:1014A00005D0012202212D4803F00CFBBEE00022F2
:1014B00002212A4803F006FBB8E000220221274857
:1014C00003F000FB204B1B881A46104B9B881946E3
:1014D000234B1B78CB1A9A4246DA224B1B78002BFF
:1014E00042D001224FF400711C4803F0EBFA9DE05A
:1014F000A402002000040040003401401004002039
:101500005C04002040050020F404002014060020A4
:10151000F40200203A060020380600203906002098
:101520002606002025060020340600208C05002019
:10153000300600202E060020000000202806002093
:1015400020060020010000202A060020220600209C
:101550002C0600201C060020320600200004004853
:10156000020000202406002000224FF400713D48B4
:1015700003F0A8FA5AE03C4B1B881A463B4B5B88A9
:1015800019463B4B1B78CB1A9A4209DA394B1B7828
:10159000002B05D001220221324803F093FA04E027
:1015A000002202212F4803F08DFA324B1B78002BCA
:1015B00028D02D4B1B881A462C4B5B8819462C4B88
:1015C0001B78CB1A9A421DDD274B1B88B3F57A7F17
:1015D00018D2294B1B881A46244B9B881946244B4A
:1015E0001B78CB1A9A4206DA01224FF400711D488B
:1015F00003F068FA0DE000224FF40071194803F07F
:1016000061FA06E000224FF40071164803F05AFA1E
:101610000CE00BE000224FF40071124803F052FA84
:10162000002202210F4803F04DFA00BF134B1B8824
:10163000642B08D8104B1B88BD2B04D9104B1B887A
:10164000B3F57A6F07D90F4B1B78002B03D10E4BE4
:1016500014229A6302E00C4B00229A6308F0ECFF1C
:101660001EE600BF000400482C06002014060020DF
:1016700002000020240600202A0600203206002056
:101680002E060020260600200034014080B59EB0C2
:1016900000AF07F150032822002118460AF07CFD14
:1016A00007F13C0300221A605A609A60DA601A61FE
:1016B0003B463C22002118460AF06EFD02233B65A2
:1016C00001233B6610237B660223FB6600233B67F6
:1016D0004FF460137B6707F15003184604F040FD98
:1016E0000346002B01D000F0ABFC0F23FB63022369
:1016F0003B6400237B644FF48063BB640023FB6482
:1017000007F13C030221184605F068FD0346002B53
:1017100001D000F095FC42F2A2033B600023FB6085
:101720004FF490737B621023FB6100237B633B4685
:10173000184605F089FF0346002B01D000F080FC1D
:1017400000BF7837BD4680BD80B58EB000AF07F1D1
:101750002C0300221A605A609A603B1D2822002147
:1017600018460AF019FD404B4FF0A0421A603E4B5C
:1017700000225A603C4B00229A603B4B01221A61C6
:10178000394B01225A76384B002283F82020364B01
:101790000022DA60344B0122DA61334B002283F8F5
:1017A0003020314B04225A612F4B00221A762E4BE7
:1017B00000225A632C4801F0B1FD0346002B01D0F2
:1017C00000F03EFC0023FB6207F12C03194626487B
:1017D00002F094FC0346002B01D000F031FC012301
:1017E0007B600123BB6000233B610323FB61042377
:1017F000FB604023BB6201237B62012387F8213019
:10180000002387F82030002387F822300023BB61B3
:1018100000237B613B1D1946134802F0E7F803469D
:10182000002B01D000F00CFC02237B600223BB6084
:101830003B1D19460C4802F0D9F80346002B01D095
:1018400000F0FEFB05237B600323BB603B1D1946B4
:10185000054802F0CBF80346002B01D000F0F0FB66
:1018600000BF3837BD4680BDA402002080B500AF60
:101870001B4B1C4A1A601A4B1B4A5A60184B002219
:101880009A60174B0122DA60154B00221A61144B43
:1018900000225A61124B00229A61114B0022DA6138
:1018A0000F4B00221A620E4803F024F90346002B66
:1018B00001D000F0C5FB0021094804F0B9FB034644
:1018C000002B01D000F0BCFB0021054804F0FBFB1D
:1018D0000346002B01D000F0B3FB00BF80BD00BF6A
:1018E000F4020020005400407321600080B500AF76
:1018F0001B4B1C4A1A601A4B4FF482725A60184BE9
:1019000000229A60164B4FF4E062DA60144B00221A
:101910001A61134B00225A61114B4FF400729A6105
:101920000F4B0822DA610E4B00221A620C4B002288
:101930005A620B4B00229A62094B0722DA62084B6B
:1019400000221A63064B08225A63054806F02CF859
:101950000346002B01D000F073FB00BF80BD00BF29
:10196000480300200030014080B500AF1B4B1C4AEB
:101970001A601A4B4FF482725A60184B00229A6018
:10198000164B4FF44072DA60144B00221A61134B6D
:1019900000225A61114B4FF400729A610F4B0022E2
:1019A000DA610E4B00221A620C4B00225A620B4B7A
:1019B00000229A62094B0722DA62084B00221A635E
:1019C000064B08225A63054805F0EEFF0346002B3C
:1019D00001D000F035FB00BF80BD00BFAC0300208C
:1019E0000038004080B58AB000AF07F11C03002228
:1019F0001A605A609A603B4600221A605A609A60E8
:101A0000DA601A615A619A61214B224A1A60204BAE
:101A100022225A601E4B00229A601D4BFF22DA6080
:101A20001B4B00221A611A4B00229A61184806F0DB
:101A300047FA0346002B01D000F002FB0023FB61B4
:101A400000237B6207F11C031946114807F0DCFAFA
:101A50000346002B01D000F0F3FA60233B603223F1
:101A60007B600023BB6000233B613B460422194698
:101A7000074806F09DFC0346002B01D000F0E0FA79
:101A8000034800F0E3FD00BF2837BD4680BD00BF1E
:101A9000100400200004004080B584B000AF3B1D5E
:101AA00000221A605A609A60154B164A1A60144B4D
:101AB00040F27F225A60124B00229A60104B4CF287
:101AC0004F32DA600E4B00229A610D4806F037F96A
:101AD0000346002B01D000F0B3FA00237B60002303
:101AE000FB603B1D1946064807F08EFA0346002BA3
:101AF00001D000F0A5FA00BF1037BD4680BD00BF81
:101B00005C0400200010004080B584B000AF3B1D95
:101B100000221A605A609A60144B154A1A60134BDF
:101B20003F225A60114B00229A60104B3222DA6039
:101B30000E4B00229A610D4806F001F90346002B76
:101B400001D000F07DFA00237B600023FB603B1D89
:101B50001946064807F058FA0346002B01D000F05A
:101B60006FFA00BF1037BD4680BD00BFA80400203B
:101B70000014004080B596B000AF07F14C0300227E
:101B80001A605A609A6007F1300300221A605A60A6
:101B90009A60DA601A615A619A613B1D2C22002119
:101BA00018460AF0F9FA394B394A1A60374B40F2B5
:101BB0007F225A60354B00229A60344B2722DA602C
:101BC000324B00221A61314B00225A612F4B002206
:101BD0009A612E4806F074F90346002B01D000F0FC
:101BE0002FFA0023FB6400233B6500237B6507F18C
:101BF0004C031946254807F007FA0346002B01D08D
:101C000000F01EFA60233B630A237B630023BB635F
:101C10000023FB6300233B6400237B640023BB643D
:101C200007F1300304221946184806F0C1FB0346A9
:101C3000002B01D000F004FA00237B600023BB607E
:101C40000023FB6000233B6100237B614FF40053C2
:101C5000BB610023FB6100233B624FF000737B629A
:101C60000023BB620023FB623B1D1946074807F0B7
:101C70004BFA0346002B01D000F0E2F9034800F0D4
:101C8000E5FC00BF5837BD4680BD00BFF40400200E
:101C90000034014080B588B000AF07F11003002286
:101CA0001A605A609A60DA603B1D00221A605A601E
:101CB0009A601F4B1F4A1A601D4B3F225A601C4BF3
:101CC00000229A601A4B40F2E732DA60184B002289
:101CD0001A61174B00225A61154B00229A61144871
:101CE00006F02DF80346002B01D000F0A9F94FF4BF
:101CF00080533B6107F1100319460D4806F06CFC58
:101D00000346002B01D000F09BF900237B600023E9
:101D1000FB603B1D1946064807F076F90346002B89
:101D200001D000F08DF900BF2037BD4680BD00BF57
:101D3000400500200040014080B500AF144B154A1B
:101D40001A60134B4FF416525A60114B00229A60DE
:101D50000F4B0022DA600E4B00221A610C4B0C2252
:101D60005A610B4B00229A61094B0022DA61084B41
:101D700000221A62064B00225A62054807F060FAF8
:101D80000346002B01D000F05BF900BF80BD00BF0F
:101D90008C0500200044004080B58AB000AF07F1F8
:101DA000140300221A605A609A60DA601A61534B79
:101DB0005B69524A43F400235361504B5B6903F45F
:101DC00000233B613B694D4B5B694C4A43F4800304
:101DD00053614A4B5B6903F48003FB60FB68474B2C
:101DE0005B69464A43F400335361444B5B6903F437
:101DF0000033BB60BB68414B5B69404A43F48023BE
:101E000053613E4B5B6903F480237B607B68002257
:101E10000F213B4802F056FE002241F650014FF0E0
:101E2000904002F04FFE002241F21661354802F068
:101E300049FE4FF461437B610023BB610023FB61DA
:101E400007F1140319462E4802F0AAFC02237B6115
:101E50000023BB610023FB6107F1140319462A48E4
:101E600002F09EFC0F237B610123BB610023FB6119
:101E700000233B6207F114031946214802F090FC4D
:101E800041F650037B610123BB610023FB6100230A
:101E90003B6207F1140319464FF0904002F080FCBA
:101EA00040F601037B610023BB610023FB6107F166
:101EB00014031946134802F073FC41F216637B6168
:101EC0000123BB610023FB6100233B6207F1140384
:101ED00019460C4802F064FC4FF4E0637B61002378
:101EE000BB610023FB6107F1140319464FF09040DA
:101EF00002F056FC00BF2837BD4680BD00100240EE
:101F000000080048000400480014004880B582B072
:101F100000AF78607B681A683E4B1B689A4201D11B
:101F200008F03EFB7B681A683B4B1B689A426CD1F9
:101F30004FF0A043D3F88030B7EE0E0A03211846C5
:101F400000F086F8F0EE407A9FED347A27EE877A3B
:101F5000334BD3ED007A77EE277A314BC3ED007A1D
:101F6000304B1A88304B1B8813449AB22E4B1A8080
:101F70002C4B5A882D4B1B8813449AB22B4B1A803A
:101F8000274BD3ED007AF5EEC07AF1EE10FA03D5C7
:101F9000234B4FF000021A60254B1B780133DAB255
:101FA000234B1A70234B1B780133DAB2214B1A7082
:101FB0001F4B1B780A2B0CD11D4B00221A70184B9B
:101FC0004FF000021A60184B00221A80174B0022B3
:101FD0001A80194B1B78002B05D0174B1B78013B3F
:101FE000DAB2154B1A70134B1B78282B02D1114B08
:101FF00000221A700F4B1B781D2B03D90F4B0122A7
:102000001A7002E00D4B00221A7000BF0837BD465F
:1020100080BD00BF400500205C0400200000C842D5
:102020001C06002034060020200600202206002086
:10203000280600202706002026060020240600206F
:1020400080B400AF72B600BFFEE7000000000000E1
:10205000B0B584B000AFF860B96087ED010AFB68E5
:1020600007EE903AB8EEE77ABB6807EE903AF8EEE2
:10207000E77A67EE277A17EE900AFEF765FA4FF0D7
:102080000002154BFEF7E2FB02460B4610461946CE
:102090000FA3D3E90023FEF7F7F802460B461446D8
:1020A0001D467868FEF750FA02460B462046294640
:1020B000FEF7A2FA02460B4610461946FEF774FDDB
:1020C000034607EE903AB0EE670A1037BD46B0BD42
:1020D0009A9999999999D93F0000B04080B487B0F6
:1020E00000AF786039604FF6FF73FB8200233B61DD
:1020F0000023FB730023BB6000233B6121E07A686F
:102100003B6913441B789AB2FB8A5340FB8200233D
:10211000FB7310E0FB8A03F00103BB60FB8A5B08E2
:10212000FB820D4ABB6832F81320FB8A5340FB82C6
:10213000FB7B0133FB73FB7B072BEBD93B69013343
:102140003B613A693B689A42D9D3FB8A18461C37EF
:10215000BD465DF8047B7047C4F0000884B080B5CC
:102160008AB000AF07F1300C8CE80F0000237B61D0
:1021700007F1180300221A605A609A6000237B60FE
:1021800007F1080300221A605A609A6001233B7528
:1021900003237B750023BB750023FB7500233B766F
:1021A00002237B76C423BB760B23FB76012204211A
:1021B000244802F087FC07F114011923102207F1CB
:1021C000300007F08BF8002204211E4802F07AFC50
:1021D000391D1923102207F1300007F009F93B1DC2
:1021E000013307211846FFF779FF0346FB84FB8C78
:1021F000DBB29AB23B7B9BB29A421CD1FB8C1B0A8E
:102200009AB27B7B9BB29A4215D13B7A9BB21B025E
:102210009AB27B7A9BB213449AB2D7F8B8301A803C
:10222000BB7A9BB21B029AB2FB7A9BB213449AB25E
:10223000D7F8BC301A8000BF2837BD46BDE88040C3
:1022400004B070470004004880B483B000AF0F4B67
:102250009B690E4A43F0010393610C4B9B6903F0A9
:1022600001037B607B68094BDB69084A43F08053BC
:10227000D361064BDB6903F080533B603B6800BFD2
:102280000C37BD465DF8047B704700BF001002406C
:1022900080B58AB000AF786007F1140300221A609D
:1022A0005A609A60DA601A617B681B68B3F1A04FCC
:1022B0003CD1204B5B691F4A43F0805353611D4B57
:1022C0005B6903F080533B613B691A4B5B69194AB8
:1022D00043F400335361174B5B6903F40033FB6035
:1022E000FB68144B5B69134A43F480035361114B41
:1022F0005B6903F48003BB60BB6803237B6103233A
:10230000BB610023FB6107F1140319464FF09040B5
:1023100002F046FA10237B610323BB610023FB61BB
:1023200007F114031946044802F03AFA00BF2837AF
:10233000BD4680BD001002400014004880B58AB040
:1023400000AF786007F1140300221A605A609A60A7
:10235000DA601A617B681B682E4A934255D12E4B76
:102360005B692D4A43F4003353612B4B5B6903F4E3
:1023700000333B613B69284B5B69274A43F4802368
:102380005361254B5B6903F48023FB60FB684FF4CA
:1023900000437B611223BB610023FB6103233B628B
:1023A00004237B6207F1140319464FF0904002F0BA
:1023B000F7F980237B611223BB610023FB610323B8
:1023C0003B6204237B6207F114031946134802F0B1
:1023D000E7F9114BDB69104A43F40013D3610E4B4C
:1023E000DB6903F40013BB60BB68002200211F20DF
:1023F00002F01BF91F2002F034F9002200212020F6
:1024000002F013F9202002F02CF900BF2837BD4656
:1024100080BD00BF0054004000100240000400488E
:1024200080B58CB000AF786007F11C0300221A6001
:102430005A609A60DA601A617B681B68334A93427B
:1024400031D1334B9B69324A43F480539361304B13
:102450009B6903F48053BB61BB692D4B5B692C4ABC
:1024600043F4003353612A4B5B6903F400337B610F
:102470007B69A023FB6102233B6200237B62032371
:10248000BB620523FB6207F11C0319464FF0904025
:1024900002F086F900220021232002F0C6F8232052
:1024A00002F0DFF82DE07B681B681A4A934228D1BE
:1024B000174BDB69164A43F48043D361144BDB6945
:1024C00003F480433B613B69114B5B69104A43F461
:1024D000802353610E4B5B6903F48023FB60FB6830
:1024E0004FF46043FB6102233B6200237B620323C2
:1024F000BB620523FB6207F11C031946064802F084
:102500004FF900BF3037BD4680BD00BF00300140ED
:1025100000100240003800400004004880B584B03C
:1025200000AF78607B681B68164A934214D1164B43
:10253000DB69154A43F00203D361134BDB6903F0F7
:102540000203FB60FB68002200211D2002F06DF8F1
:102550001D2002F086F810E07B681B680B4A93424E
:102560000BD1094B9B69084A43F400539361064B16
:102570009B6903F40053BB60BB6800BF1037BD46C6
:1025800080BD00BF00040040001002400034014044
:1025900080B586B000AF78607B681B68274A93429D
:1025A00014D1274BDB69264A43F01003D361244B37
:1025B000DB6903F010037B617B6900220021362078
:1025C00002F033F8362002F04CF832E07B681B68EA
:1025D0001C4A934214D11A4BDB69194A43F0200379
:1025E000D361174BDB6903F020033B613B69002299
:1025F0000021372002F019F8372002F032F818E0F5
:102600007B681B68104A934213D10D4B9B690C4A9F
:1026100043F4803393610A4B9B6903F48033FB607E
:10262000FB6800220021182001F0FFFF182002F0B3
:1026300018F800BF1837BD4680BD00BF001000402D
:1026400000100240001400400040014080B58AB0F4
:1026500000AF786007F1140300221A605A609A6094
:10266000DA601A617B681B68224A93421CD1224BB4
:102670005B69214A43F4802353611F4B5B6903F478
:1026800080233B613B6920237B610223BB610023E4
:10269000FB6100233B6202237B6207F114031946AE
:1026A000164802F07DF821E07B681B68144A9342CB
:1026B0001CD1114B5B69104A43F4802353610E4BCC
:1026C0005B6903F48023FB60FB684FF480737B61DC
:1026D0000223BB610023FB6100233B620A237B6270
:1026E00007F114031946054802F05AF800BF2837CD
:1026F000BD4680BD000400400010024000040048B8
:102700000034014080B58AB000AF786007F114034F
:1027100000221A605A609A60DA601A617B681B684E
:102720001B4A934230D11B4BDB691A4A43F40033F6
:10273000D361184BDB6903F400333B613B69154BF4
:102740005B69144A43F400335361124B5B6903F431
:102750000033FB60FB680C237B610223BB61002319
:10276000FB6103233B6207237B6207F114031946D5
:102770004FF0904002F014F800220021262001F0D2
:1027800054FF262001F06DFF00BF2837BD4680BDF5
:10279000004400400010024080B400AFFEE780B467
:1027A00000AFFEE780B400AFFEE780B400AFFEE705
:1027B00080B400AFFEE780B400AF00BFBD465DF857
:1027C000047B704780B400AF00BFBD465DF8047B5A
:1027D000704780B400AF00BFBD465DF8047B704712
:1027E00080B500AF00F056FD00BF80BD80B500AFE2
:1027F000024805F0BDFC00BF80BD00BF40050020C1
:1028000080B500AF024805F0B3FC00BF80BD00BF3B
:102810001004002080B500AF024802F0E5FB00BFC5
:1028200080BD00BFF402002080B500AF024802F076
:10283000F5FB00BF80BD00BFF402002080B500AFF3
:10284000024805F05DF900BF80BD00BF48030020CD
:1028500080B500AF024806F081FE00BF80BD00BF1A
:102860008C05002080B500AF024805F081FC00BF58
:1028700080BD00BF5C04002080B500AF024805F0B9
:1028800077FC00BF80BD00BFA804002080B400AF6B
:1028900001231846BD465DF8047B704780B582B0C1
:1028A00000AF7860396009F03FFC034616221A60D9
:1028B0004FF0FF3318460837BD4680BD80B582B063
:1028C00000AF78604FF0FF317868FFF7E7FFFEE771
:1028D00080B586B000AFF860B9607A6000237B6194
:1028E0000AE0AFF300800146BB685A1CBA60CAB266
:1028F0001A707B6901337B617A697B689A42F0DBED
:102900007B6818461837BD4680BD80B586B000AFDD
:10291000F860B9607A6000237B6109E0BB685A1CEB
:10292000BA601B781846AFF300807B6901337B6186
:102930007A697B689A42F1DB7B6818461837BD4696
:1029400080BD80B483B000AF78604FF0FF3318468D
:102950000C37BD465DF8047B704780B483B000AF90
:10296000786039603B684FF400525A600023184683
:102970000C37BD465DF8047B704780B483B000AF70
:102980007860012318460C37BD465DF8047B70471C
:1029900080B485B000AFF860B9607A600023184653
:1029A0001437BD465DF8047B7047000080B586B0E3
:1029B00000AF7860144A154BD31A7B617B693B6189
:1029C000134B1B68002B02D1114B124A1A60104B9B
:1029D0001A687B6813443A699A4207D209F0A4FB4B
:1029E00003460C221A604FF0FF3309E0084B1B68C6
:1029F000FB60074B1A687B681344054A1360FB6849
:102A000018461837BD4680BD008000200004000035
:102A10003C060020280A002080B400AF064BD3F803
:102A20008830054A43F47003C2F8883000BFBD46C1
:102A30005DF8047B704700BF00ED00E080B500AF9B
:102A4000594808F025FE0323584A5021422008F037
:102A50007DFE0323564A5021DC2008F077FE032335
:102A6000544A50214FF4B47008F070FE0323524AC8
:102A7000DC21422008F06AFE0323504A4FF48C7197
:102A8000372008F063FE03234D4ADC21D22008F0F2
:102A90005DFE03234B4ADC214FF4B97008F056FE6B
:102AA0001E230F224FF48C71C82009F031F8322315
:102AB0000F224FF48271E62009F02AF846230F22F4
:102AC000F0214FF4827009F023F83F4808F0E0FD50
:102AD00003233E4A0A21192008F038FE03233C4A0A
:102AE0004FF48C714FF4BE7008F030FE0323394A66
:102AF0008C21322008F02AFE0323364A8C21DC2068
:102B000008F024FE0323334A8C214FF4B97008F0F7
:102B10001DFE0323304A0A21D02008F017FE4FF68D
:102B2000FF7008F0A5FD00234FF4F0720021002093
:102B300008F02CFF4FF4A07300220021002008F0C1
:102B400025FF4FF4A0734FF4F0724FF4A0710020F2
:102B500008F01CFF4FF4A0734FF4F07200214FF403
:102B6000F07008F013FF4FF4A073A0220021A02002
:102B700008F00CFF28234FF4F0722821002008F001
:102B800005FFB4234FF4F072B421002008F0FEFEDC
:102B90004FF4A0734FF4A07228214FF4A07008F0F6
:102BA000F5FE00BF80BD00BF6000002098EF000868
:102BB0009CEF0008A0EF0008A8EF0008ACEF0008A9
:102BC000B0EF0008B8EF000858000020C0EF000880
:102BD000C8EF0008CCEF0008D4EF000890B587B02C
:102BE00002AF0446084611461A462346FB800346B8
:102BF000BB800B467B8013463B80764808F048FD3F
:102C00004FF40071744801F045FF0346002B02D0D9
:102C10001F2008F02DFDFB88BD2B03D84FF4784012
:102C200008F026FDFB88B3F57A7F22D8FB8807EEF3
:102C3000903AF8EE677AB2EE047AC7EE876A16EE3B
:102C4000900AFDF781FC02460B46796A8988634841
:102C5000A0FB0101C90889B207F108000091604991
:102C600009F00CFF07F10802032378211E2008F069
:102C70006DFD4FF6FF7008F0FBFC0221564801F095
:102C800009FF0346002B03D04FF4FC6008F0F0FC72
:102C90003B8C632B01D800233B843B8CB3F57A7FBC
:102CA00023D83B8C07EE903AF8EE677AB2EE047ABE
:102CB000C7EE876A16EE900AFDF746FC02460B4601
:102CC000796A49884548A0FB0101C90889B207F122
:102CD00008000091424909F0D1FE07F108020323E0
:102CE00078214FF4AF7008F031FD4FF6FF7008F017
:102CF000BFFC3B88642B03D94FF4784008F0B8FC44
:102D00003B8807EE903AF8EE677A17EE900AFDF7E7
:102D10001BFC4FF00002334BFDF798FD02460B46BB
:102D200007F10800304909F0A9FE07F10802032362
:102D30007821DC2008F00AFD4FF6FF7008F098FCBF
:102D4000BB88B3F57A6F03D94FF4784008F090FC54
:102D5000BB8807EE903AF8EE677A17EE900AFDF717
:102D6000F3FB4FF000021F4BFDF770FD02460B46D0
:102D700007F108001D4909F081FE07F1080203234D
:102D8000FA21322008F0E2FC4FF6FF7008F070FCE8
:102D90007B8807EE903AF8EE677A17EE900AFDF717
:102DA000D3FB4FF000020F4BFDF750FD02460B46E0
:102DB00007F108000E4909F061FE07F1080203233C
:102DC000FA214FF4B97008F0C1FC00BF1437BD46BA
:102DD00090BD00BF5800002000040048CDCCCCCCF2
:102DE000F8EF00080000594004F000080CF000085B
:102DF00014F0000880B582B000AF0346FB7137487D
:102E000008F046FCFB790B2B5DD801A252F823F0A9
:102E1000412E00084F2E0008C72E0008C72E0008BC
:102E2000C72E0008C72E0008C72E0008C72E0008AE
:102E3000C72E0008C72E0008772E00089F2E000816
:102E40000323274A0A21D02008F080FC42E0032314
:102E5000244A0A21D02008F079FC234808F018FC05
:102E60000323224A0A214FF4927008F06FFC1B489A
:102E700008F00EFC2EE003231A4A0A21D02008F0A5
:102E800065FC194808F004FC0323194A0A214FF491
:102E9000927008F05BFC114808F0FAFB1AE003237B
:102EA000104A0A21D02008F051FC0F4808F0F0FB2E
:102EB0000323104A0A214FF4927008F047FC074898
:102EC00008F0E6FB06E00323054A0A21D02008F0BB
:102ED0003DFC00BF00BF0837BD4680BD5800002044
:102EE000D4EF00081CF000086000002024F0000867
:102EF0002CF0000834F0000880B582B000AF034623
:102F0000FB71FB79032B5DD801A252F823F000BFBF
:102F1000212F00083F2F0008612F0008832F000891
:102F20001E230F224FF48C71C82008F039FF284B64
:102F30004B229A63FB790133FB71FB7943E0322327
:102F40000F224FF48271E62008F02AFF204B9B6B82
:102F50001F4A19339363FB790133FB71FB7932E02C
:102F600046230F22F0214FF4827008F019FF184B0E
:102F70009B6B174A19339363FB790133FB71FB7920
:102F800021E0002008F074FB44230D22F12140F2DF
:102F9000051008F005FF30230D2240F20511E7204F
:102FA00008F0FEFE1C230D2240F21911C92008F082
:102FB000F7FE4FF6FF7008F05BFB054B00229A63AB
:102FC000002300E0002318460837BD4680BD00BF3F
:102FD0000004004080B500AF002008F069FB00BF8E
:102FE00080BD000080B586B000AF7860114808F061
:102FF0004FFB7B685B88104AA2FB0323DB089BB274
:1030000019467B689B880C4AA2FB0323DB089BB212
:1030100007F108000A46094909F030FD07F10802E6
:1030200003230F21BE2008F091FB00BF1837BD46D7
:1030300080BD00BF60000020CDCCCCCC3CF00008AF
:1030400080B582B000AF384808F022FB00237B60D7
:103050000BE07B6899B27B689BB24FF4F072002062
:1030600008F094FC7B6828337B607B68B3F5A07F15
:10307000EFDB4FF4A07300220021002008F086FC53
:103080004FF4A0734FF4F0724FF4A071002008F0D9
:103090007DFC4FF4A0734FF4F07200214FF4F070F8
:1030A00008F074FC2823A0220021A02008F06EFC68
:1030B00003231E4A0F21142008F048FB1C4808F087
:1030C000E7FA03231B4A3721282008F03FFB03239C
:1030D000194A5F21282008F039FB0323174A87216A
:1030E000282008F033FB0323154AAF21282008F0DD
:1030F0002DFB0323134AD721282008F027FB0323A5
:10310000114AFF21282008F021FB074808F0C0FAE7
:1031100003230E4A40F22711282008F017FB00BFB6
:103120000837BD4680BD00BF580000204CF00008A5
:103130006000002058F0000860F0000868F0000807
:1031400070F0000878F0000880F0000888F00008AF
:1031500080B582B000AF78600B46FB70FB78002B27
:1031600014D0002008F084FAFB789BB21A46920033
:103170001344DB009BB219339BB20722194614207B
:1031800008F032FE4FF6FF7008F072FA7B681B7889
:103190009BB21A4692001344DB009BB219339BB2D8
:1031A00007221946142008F01FFE00BF0837BD464D
:1031B00080BD0000DFF834D0FFF72EFC0C480D492D
:1031C0000D4A002302E0D458C4500433C4188C4282
:1031D000F9D30A4A0A4C002301E013600432A242E8
:1031E000FBD308F0A7FFFDF7F9FFFEE70080002002
:1031F00000000020880200206C21010888020020C5
:10320000280A0020FEE7000080B500AF084B1B68CD
:10321000074A43F010031360032001F0FBF90F206D
:1032200000F008F8FFF710F80023184680BD00BF33
:103230000020024080B582B000AF7860124B1A685F
:10324000124B1B7819464FF47A73B3FBF1F3B2FBC0
:10325000F3F3184601F013FA0346002B01D00123C3
:103260000EE07B680F2B0AD8002279684FF0FF3000
:1032700001F0DBF9064A7B681360002300E00123BC
:1032800018460837BD4680BD040000200C00002011
:103290000800002080B400AF064B1B781A46064B8E
:1032A0001B681344044A136000BFBD465DF8047BED
:1032B000704700BF0C0000204006002080B400AF23
:1032C000034B1B681846BD465DF8047B704700BF82
:1032D0004006002080B584B000AF7860FFF7EEFFB5
:1032E000B8607B68FB60FB68B3F1FF3F05D00A4B19
:1032F0001B781A46FB681344FB6000BFFFF7DEFF34
:103300000246BB68D31AFA689A42F7D800BF00BFDA
:103310001037BD4680BD00BF0C00002080B59AB0BC
:1033200000AF7860002387F8673000233B660023F6
:10333000BB607B68002B01D10123C9E17B681B695D
:10334000002B7B681B6C03F01003002B76D17B688D
:103350001B6C002B52D17B6800225A647B680022D0
:10336000DA647B6800229A647B68002283F83C2040
:103370007868FEF78DFF7B681B689B6803F08053BD
:10338000002B3BD1786801F00FF8034687F86730CF
:103390007B681B6C03F01003002B2FD197F867306C
:1033A000002B2BD17B681B6C23F4885323F0020382
:1033B00043F002027B681A647B681B689A687B682A
:1033C0001B6822F040529A607B681B689A687B6891
:1033D0001B6842F080529A60864B1B68864AA2FBAB
:1033E00003239A0C13469B0013445B00BB6002E06E
:1033F000BB68013BBB60BB68002BF9D17B681B68D5
:103400009B6803F08053002B07D07B681B689B6888
:1034100003F00053B3F1005F10D17B681B6C23F005
:10342000120343F010027B681A647B685B6C43F004
:1034300001027B685A64012387F867307B681B6C44
:1034400003F01003002B40F0368197F86730002B13
:1034500040F031817B681B689B6803F00403002BFC
:1034600040F029817B681B6C23F4817343F00202D6
:103470007B681A647B681B68B3F1A04F04D07B683B
:103480001B685E4A934201D15D4B00E05D4BFB65DA
:103490007B681B68B3F1A04F02D1584BFB601AE068
:1034A0007B681B68554A934203D14FF0A043FB60F1
:1034B00011E07B681B68544A934202D1534BFB6076
:1034C00009E07B681B68514A934202D14E4BFB6076
:1034D00001E00023FB607B681B689B6803F003032B
:1034E000012B08D17B681B681B6803F00103012BCB
:1034F00001D1012300E00023002B1CD1FB68002B2D
:1035000010D0FB689B6803F00303012B07D1FB6815
:103510001B6803F00103012B01D1012300E000230C
:10352000002B08D1FB6D9B6823F440327B685B68FD
:103530001A43FB6D9A607B685B7E5B037A68526B13
:10354000012A02D04FF4805200E000221A437B6827
:10355000DB681A437B689B6813433A6E13433B66F0
:103560007B6893F82030012B1BD17B685B7E002B9E
:1035700009D17B685B6A013B5A043B6E134343F4F9
:1035800080333B660DE07B681B6C23F0220343F025
:1035900020027B681A647B685B6C43F001027B68E5
:1035A0005A647B689B6A012B3AD07B681B68164A79
:1035B000934204D07B681B68144A934228D17B68ED
:1035C0009B6AB3F5307F12D07B689B6AB3F5807F2E
:1035D0000AD07B689B6AB3F5E07F02D07B689B6A68
:1035E00018E04FF4807315E04FF4307312E04FF49D
:1035F000E0730FE00400002083DE1B430001005055
:103600000003005000070050000400500005005067
:103610007B689B6A7A68D26A13433A6E13433B66AF
:103620007B681B689B6803F00C03002B14D17B683C
:103630001B68DB687A68126823F4804323F0020376
:10364000D3607B681B7E9A037B6893F830305B0005
:1036500013433A6E13433B667B681B68DA681E4B64
:1036600013407A681268396E0B43D3607B681B691C
:10367000012B0CD17B681B681B6B23F00F017B684F
:10368000DB695A1E7B681B680A431A6307E07B6884
:103690001B681A6B7B681B6822F00F021A637B6839
:1036A00000225A647B681B6C23F0030343F0010281
:1036B0007B681A640AE07B681B6C23F0120343F0FA
:1036C00010027B681A64012387F8673097F8673027
:1036D00018466837BD4680BD07C0F0FF80B584B08E
:1036E00000AF78600023FB737B681B689B6803F066
:1036F0000403002B40F0F9807B6893F83C30012BE9
:1037000001D10223F4E07B68012283F83C20786831
:1037100000F0E6FD0346FB73FB7B002B40F0E080EE
:103720007B681B6C23F4706323F0010343F4807205
:103730007B681A647B681B68B3F1A04F04D07B6878
:103740001B686D4A934206D16C4B9B6803F01F03C4
:10375000002B10D005E06A4B9B6803F01F03002B81
:1037600009D07B681B68B3F1A04F04D07B681B684D
:10377000644A934215D17B681B6C23F480127B68EA
:103780001A647B681B68DB6803F00073002B36D07B
:103790007B681B6C23F4405343F480527B681A64AB
:1037A0002DE07B681B6C43F480127B681A647B6895
:1037B0001B68B3F1A04F04D07B681B684E4A93424C
:1037C0000AD14FF0A043DB6803F00073002B14BF55
:1037D00001230023DBB208E04A4BDB6803F00073EF
:1037E000002B14BF01230023DBB2002B07D07B6822
:1037F0001B6C23F4405343F480527B681A647B684B
:103800001B6C03F48053B3F5805F06D17B685B6C5F
:1038100023F006027B685A6402E07B6800225A6447
:103820007B68002283F83C207B681B681C221A609E
:103830007B681B68B3F1A04F04D07B681B682E4ADD
:10384000934206D12D4B9B6803F01F03002B3ED003
:1038500005E02B4B9B6803F01F03002B37D07B68E0
:103860001B68B3F1A04F04D07B681B68224A9342C7
:1038700006D1224B9B6803F01F03052B27D005E0E0
:103880001F4B9B6803F01F03052B20D07B681B6830
:10389000B3F1A04F04D07B681B68174A934206D14E
:1038A000164B9B6803F01F03092B10D005E0144B47
:1038B0009B6803F01F03092B09D07B681B68B3F1D9
:1038C000A04F04D07B681B680E4A93420FD17B68DF
:1038D0001B689A687B681B6842F004029A6006E0E5
:1038E0007B68002283F83C2001E00223FB73FB7B12
:1038F00018461037BD4680BD00010050000300503F
:10390000000700500004005080B584B000AF78601C
:1039100039600023FB737B6893F83C30012B01D1A5
:1039200002235FE07B68012283F83C20786800F086
:103930003BFD0346FB73FB7B002B4ED17B680122D2
:103940001A647B681B689A687B681B6822F0804257
:103950009A603B68012B07D17B681B689A687B687B
:103960001B6842F080429A607B681B689A687B689B
:103970001B6842F000429A60FFF7A0FCB8601CE0B0
:10398000FFF79CFC0246BB68D31A0A2B15D97B684B
:103990001B689B6803F00043B3F1004F0DD17B68B7
:1039A0001B6C23F0120343F010027B681A647B68DF
:1039B000002283F83C20012314E07B681B689B688D
:1039C00003F00043B3F1004FDAD07B681B6C23F0A7
:1039D000030343F001027B681A647B68002283F8CA
:1039E0003C20FB7B18461037BD4680BD80B49DB09F
:1039F00000AF78603960002387F86F300023FB60E8
:103A00000023BB667B6893F83C30012B01D1022375
:103A100064E37B68012283F83C207B681B69002BF0
:103A200003D03B689B69012B51D13B685B68012B3C
:103A300043D13B681B6A012B2BD03B681B681A02E1
:103A40007B681B6884498B4204D07B681B68834970
:103A50008B4214D13B681B6A082B0ED03B681B6A53
:103A6000142B08D03B681B6A1C2B02D03B681B6AD6
:103A700007E0102305E01C2303E0342301E03B684A
:103A80001B6A1A433B685B6A1343BA6E1343BB66F7
:103A900005E03B681B681B02BA6E1343BB667B687C
:103AA0001B68DA6C6E4B13407A681268B96E0B4370
:103AB000D3647B68BA6E9A647FE07B681B6C43F0CA
:103AC00020027B681A64012387F86F3075E07B68F9
:103AD000DB6C002B40D13B689A697B68DA647B68B9
:103AE00000229A643B681B6A012B2DD07B689A6C7C
:103AF0003B689B69591E7B681B685748834204D00A
:103B00007B681B685548834214D13B681B6A082BAD
:103B10000ED03B681B6A142B08D03B681B6A1C2B19
:103B200002D03B681B6A07E0102305E01C2303E07A
:103B3000342301E03B681B6A19433B685B6A0B4313
:103B40001A437B689A6407E07B689A6C3B689B69C0
:103B5000013B1A437B689A647B68996C3B685A689E
:103B600013465B0013445B0002331F2202FA03F387
:103B7000DB4319403B6818683B685A6813465B0092
:103B800013445B00023300FA03F341EA03027B684B
:103B90009A647B68DB6C5A1E7B68DA647B68DB6C3A
:103BA000002B0AD17B681B68DA6C2D4B13407A68B6
:103BB000916C7A6812680B43D3647B681B689B68BE
:103BC00003F00803002B2DD13B685B7F002B10D145
:103BD0007B681B68DB6823F440113B689B7F5A05B8
:103BE0003B681B7F1B051A437B681B680A43DA602E
:103BF00018E07B681B68DB6823F440113B689B7FFF
:103C00005A057B681B680A43DA603B681B7F012BFF
:103C100008D17B681B6C43F020027B681A64012387
:103C200087F86F307B681B689B6803F00C03002BE0
:103C300040F011813B681B6A012B13D17B681B6824
:103C4000DB6823F000713B685B7F5A067B681B686A
:103C50000A43DA601BE000BF00040050000500507A
:103C6000002008827B681B68DA687B681B6822F08A
:103C70000072DA603B685B7F012B08D17B681B6CAC
:103C800043F020027B681A64012387F86F303B6899
:103C90001B68092B1CD97B681B6899693B681A68EB
:103CA00013465B0013441E3B072202FA03F3DB4377
:103CB00019403B6898683B681A6813465B001344D8
:103CC0001E3B00FA03F27B681B680A439A6119E005
:103CD0007B681B6859693B681A6813465B0013448C
:103CE000072202FA03F3DB4319403B6898683B68FC
:103CF0001A6813465B00134400FA03F27B681B68E2
:103D00000A435A613B685A697B681B68DB68DB08B9
:103D100003F003035B0002FA03F37B663B681B6955
:103D2000013B032B4ED801A252F823F03D3D000881
:103D30005F3D0008813D0008A33D00087B681B68CB
:103D40001A6E9A4B13403A68126891067A6E0A43CB
:103D50001A437B681B6842F000421A667EE07B686B
:103D60001B685A6E914B13403A68126891067A6E3E
:103D70000A431A437B681B6842F000425A666DE0B2
:103D80007B681B689A6E894B13403A6812689106EB
:103D90007A6E0A431A437B681B6842F000429A66B7
:103DA0005CE07B681B68DA6E804B13403A681268EF
:103DB00091067A6E0A431A437B681B6842F0004200
:103DC000DA664BE07B681B681B6E03F0F8423B68C9
:103DD0001B689B069A4207D17B681B681A6E7B683A
:103DE0001B6822F000421A667B681B685B6E03F05A
:103DF000F8423B681B689B069A4207D17B681B68A8
:103E00005A6E7B681B6822F000425A667B681B680A
:103E10009B6E03F0F8423B681B689B069A4207D1F1
:103E20007B681B689A6E7B681B6822F000429A666A
:103E30007B681B68DB6E03F0F8423B681B689B06DF
:103E40009A420AD17B681B68DA6E7B681B6822F095
:103E50000042DA6601E000BF00E000BF7B681B683B
:103E60009B6803F00303012B08D17B681B681B6868
:103E700003F00103012B01D1012300E00023002BFB
:103E800040F026813B68DB68012B0FD07B681B6804
:103E9000D3F8B0103B681B68012202FA03F3DA433F
:103EA0007B681B680A40C3F8B02049E07B681B6848
:103EB000D3F8B0103B681B6801229A407B681B68EE
:103EC0000A43C3F8B0203B681B68092B1CD97B68E8
:103ED0001B6899693B681A6813465B0013441B3BD7
:103EE000072202FA03F3DB4319403B6898683B68FA
:103EF0001A6813465B0013441B3B00FA03F27B680D
:103F00001B680A439A611BE07B681B6859693B6820
:103F10001B685A1C13465B001344072202FA03F382
:103F2000DB4319403B6898683B681B685A1C134682
:103F30005B00134400FA03F27B681B680A435A6172
:103F40007B681B68B3F1A04F04D07B681B68184ADC
:103F5000934201D1174B00E0174B3B663B681B684F
:103F6000102B05D13B6E9B6803F40003002B15D08A
:103F70003B681B68112B05D13B6E9B6803F0807377
:103F8000002B0BD03B681B68122B40F0A1803B6ECE
:103F90009B6803F48003002B40F09A807B681B68C9
:103FA000B3F1A04F0AD1024B3B6122E000F0FF8346
:103FB0000001005000030050000700507B681B68A0
:103FC000494A934203D14FF0A0433B6111E07B6823
:103FD0001B68464A934202D1454B3B6109E07B682E
:103FE0001B68434A934202D1404B3B6101E00023EE
:103FF0003B617B681B689B6803F00303012B08D1BE
:104000007B681B681B6803F00103012B01D10123AE
:1040100000E00023002B50D13B69002B10D03B69FE
:104020009B6803F00303012B07D13B691B6803F076
:104030000103012B01D1012300E00023002B3CD11F
:104040003B681B68102B1DD17B681B68B3F1A04F28
:1040500018D13B6E9B6843F400023B6E9A60254B7F
:104060001B68254AA2FB03239A0C13469B001344AA
:104070005B00FB6002E0FB68013BFB60FB68002B20
:10408000F9D124E03B681B68112B0BD17B681B68BE
:10409000B3F1A04F06D13B6E9B6843F080723B6E3C
:1040A0009A6014E03B681B68122B10D13B6E9B6832
:1040B00043F480023B6E9A6009E07B681B6C43F01E
:1040C00020027B681A64012387F86F3000E000BF8C
:1040D0007B68002283F83C2097F86F3018467437CD
:1040E000BD465DF8047B704700010050000400509D
:1040F000000500500400002083DE1B4380B499B00B
:1041000000AF78603960002387F85F307B681B68F8
:10411000B3F1A04F02D16D4BBB601AE07B681B6806
:104120006A4A934203D14FF0A043BB6011E07B6821
:104130001B68674A934202D1664BBB6009E07B680B
:104140001B68644A934202D1614BBB6001E00023CB
:10415000BB60BB68002B01D10123B0E07B6893F802
:104160003C30012B01D10223A9E07B68012283F8B6
:104170003C207B681B689B6803F00403002B40F025
:104180008D80BB689B6803F00403002B40F08680A1
:104190007B681B68B3F1A04F04D07B681B684B4A57
:1041A000934201D14C4B00E04C4BBB653B681B6814
:1041B000002B40D0BB6D9B6823F460423B6859687C
:1041C0007B6893F830305B030B431A43BB6D9A60F6
:1041D0007B681B689B6803F00303012B08D17B6895
:1041E0001B681B6803F00103012B01D1012300E0D0
:1041F0000023002B5CD1BB689B6803F00303012BF9
:1042000007D1BB681B6803F00103012B01D1012317
:1042100000E00023002B4BD1BB6D9B6823F471633E
:1042200023F00F033A6811683A6892680A431A4308
:10423000BB6D9A603CE0BB6D9B6823F46042BB6D34
:104240009A607B681B689B6803F00303012B08D10D
:104250007B681B681B6803F00103012B01D101235C
:1042600000E00023002B23D1BB689B6803F003030D
:10427000012B07D1BB681B6803F00103012B01D19F
:10428000012300E00023002B12D1BB6D9B6823F4B7
:10429000716323F00F03BA6D936009E07B681B6CB8
:1042A00043F020027B681A64012387F85F3000E046
:1042B00000BF7B68002283F83C2097F85F301846E7
:1042C0006437BD465DF8047B704700BF00010050B5
:1042D000000400500005005000030050000700508B
:1042E00080B584B000AF78600023FB607B681B68FA
:1042F0009B6803F00303012B08D17B681B681B68D4
:1043000003F00103012B01D1012300E00023002B66
:1043100043D17B681B689A68224B1340002B0DD059
:104320007B681B6C43F010027B681A647B685B6CD3
:1043300043F001027B685A6401232FE07B681B680D
:104340009A687B681B6842F001029A60FEF7B6FF2C
:10435000F8601BE0FEF7B2FF0246FB68D31A022B9F
:1043600014D97B681B681B6803F00103012B0DD077
:104370007B681B6C43F010027B681A647B685B6C83
:1043800043F001027B685A64012307E07B681B68E5
:104390001B6803F00103012BDCD100231846103702
:1043A000BD4680BD3F00008080B584B000AF78601E
:1043B0000023FB607B681B689B6803F00303012BF1
:1043C00008D17B681B681B6803F00103012B01D136
:1043D000012300E00023002B47D07B681B689B680B
:1043E00003F00D03012B0FD17B681B689A687B6873
:1043F0001B6842F002029A607B681B6803221A6005
:10440000FEF75CFFF86029E07B681B6C43F010024C
:104410007B681A647B685B6C43F001027B685A64BA
:10442000012323E0FEF74AFF0246FB68D31A022B62
:1044300014D97B681B689B6803F00103012B0DD125
:104440007B681B6C43F010027B681A647B685B6CB2
:1044500043F001027B685A64012307E07B681B6814
:104460009B6803F00103012BDCD0002318461037B2
:10447000BD4680BD80B485B000AF78607B6803F036
:104480000703FB600C4BDB68BB60BA684FF6FF03A9
:104490001340BB60FB681A02BB68134343F0BF6361
:1044A00043F40033BB60044ABB68D36000BF1437D9
:1044B000BD465DF8047B704700ED00E080B400AFBE
:1044C000044BDB681B0A03F007031846BD465DF882
:1044D000047B704700ED00E080B483B000AF03467A
:1044E000FB7197F90730002B0BDBFB7903F01F0200
:1044F000074997F907305B09012000FA02F241F8F9
:10450000232000BF0C37BD465DF8047B704700BF19
:1045100000E100E080B483B000AF03463960FB7176
:1045200097F90730002B0ADB3B68DAB20C4997F9A0
:1045300007301201D2B20B4483F800230AE03B6833
:10454000DAB20849FB7903F00F03043B1201D2B23F
:104550000B441A7600BF0C37BD465DF8047B7047EC
:1045600000E100E000ED00E080B489B000AFF86049
:10457000B9607A60FB6803F00703FB61FB69C3F174
:104580000703042B28BF0423BB61FB690433062BFC
:1045900002D9FB69033B00E000237B614FF0FF324F
:1045A000BB6902FA03F3DA43BB681A407B699A409D
:1045B0004FF0FF317B6901FA03F3D9437B680B406D
:1045C000134318462437BD465DF8047B704700004E
:1045D00080B582B000AF78607B68013BB3F1807F2B
:1045E00001D301230FE00A4A7B68013B53600F218E
:1045F0004FF0FF30FFF78EFF054B00229A60044B0F
:1046000007221A60002318460837BD4680BD00BF48
:1046100010E000E080B582B000AF78607868FFF706
:1046200029FF00BF0837BD4680BD80B586B000AF0A
:104630000346B9607A60FB7300237B61FFF73EFF9E
:1046400078617A68B9687869FFF78EFF024697F952
:104650000F3011461846FFF75DFF00BF1837BD4603
:1046600080BD80B582B000AF0346FB7197F907307B
:104670001846FFF731FF00BF0837BD4680BD80B543
:1046800082B000AF78607868FFF7A2FF0346184653
:104690000837BD4680BD80B483B000AF78607B68CA
:1046A00093F82130022B08D07B6804229A637B6840
:1046B000002283F82020012320E07B681B681A6811
:1046C0007B681B6822F00E021A607B681B681A6800
:1046D0007B681B6822F001021A607B681A6C7B6899
:1046E000DB6B012101FA02F25A607B68012283F838
:1046F00021207B68002283F82020002318460C37F5
:10470000BD465DF8047B704780B584B000AF78602B
:104710000023FB737B6893F82130022B05D07B6864
:1047200004229A630123FB7327E07B681B681A68E5
:104730007B681B6822F00E021A607B681B681A688F
:104740007B681B6822F001021A607B681A6C7B6828
:10475000DB6B012101FA02F25A607B68012283F8C7
:1047600021207B68002283F820207B685B6B002B74
:1047700003D07B685B6B78689847FB7B18461037E3
:10478000BD4680BD80B483B000AF78607B6893F88D
:10479000213018460C37BD465DF8047B7047000099
:1047A00080B487B000AF7860396000237B6154E14A
:1047B0003B681A6801217B6901FA03F31340FB602F
:1047C000FB68002B00F046813B685B6803F0030345
:1047D000012B05D03B685B6803F00303022B30D14B
:1047E0007B689B683B617B695B00032202FA03F3F1
:1047F000DB433A6913403B613B68DA687B695B00E5
:1048000002FA03F33A6913433B617B683A699A60A1
:104810007B685B683B6101227B6902FA03F3DB433F
:104820003A6913403B613B685B681B0903F0010276
:104830007B6902FA03F33A6913433B617B683A6987
:104840005A603B685B6803F00303032B17D07B6857
:10485000DB683B617B695B00032202FA03F3DB4305
:104860003A6913403B613B689A687B695B0002FAD6
:1048700003F33A6913433B617B683A69DA603B684A
:104880005B6803F00303022B23D17B69DA087B68A2
:10489000083253F822303B617B6903F007039B0029
:1048A0000F2202FA03F3DB433A6913403B613B6892
:1048B0001A697B6903F007039B0002FA03F33A6964
:1048C00013433B617B69DA087B680832396943F836
:1048D00022107B681B683B617B695B00032202FA44
:1048E00003F3DB433A6913403B613B685B6803F0C9
:1048F00003027B695B0002FA03F33A6913433B61ED
:104900007B683A691A603B685B6803F44033002BAC
:1049100000F0A080584B9B69574A43F00103936114
:10492000554B9B6903F00103BB60BB68534A7B692D
:104930009B08023352F823303B617B6903F0030389
:104940009B000F2202FA03F3DB433A6913403B61F9
:104950007B68B3F1904F19D07B68494A934213D0DA
:104960007B68484A93420DD07B68474A934207D000
:104970007B68464A934201D1042308E0052306E000
:10498000032304E0022302E0012300E000237A690C
:1049900002F00302920093403A6913433B613749A6
:1049A0007B699B0802333A6941F82320384B9B68A6
:1049B0003B61FB68DB433A6913403B613B685B68E2
:1049C00003F48013002B03D03A69FB6813433B6167
:1049D0002F4A3B6993602E4BDB683B61FB68DB43EE
:1049E0003A6913403B613B685B6803F40013002B9A
:1049F00003D03A69FB6813433B61254A3B69D360A6
:104A0000234B5B683B61FB68DB433A6913403B61C6
:104A10003B685B6803F40033002B03D03A69FB6802
:104A200013433B611A4A3B695360194B1B683B6156
:104A3000FB68DB433A6913403B613B685B6803F406
:104A40008033002B03D03A69FB6813433B61104A63
:104A50003B6913607B6901337B613B681A687B6942
:104A600022FA03F3002B7FF4A3AE00BF00BF1C3774
:104A7000BD465DF8047B7047001002400000014015
:104A80000004004800080048000C004800100048DE
:104A90000004014080B485B000AF78600B467B8095
:104AA0007B681A697B881340002B02D00123FB73BB
:104AB00001E00023FB73FB7B18461437BD465DF80D
:104AC000047B704780B483B000AF78600B467B8076
:104AD00013467B707B78002B03D07A887B689A61C1
:104AE00002E07A887B689A6200BF0C37BD465DF8A9
:104AF000047B704780B582B000AF78607B68002B84
:104B000001D1012381E07B6893F84130DBB2002BB7
:104B100006D17B68002283F840207868FDF70EFC00
:104B20007B68242283F841207B681B681A687B68B5
:104B30001B6822F001021A607B685A687B681B6858
:104B400022F070621A617B681B689A687B681B6838
:104B500022F400429A607B68DB68012B07D17B68F6
:104B60009A687B681B6842F400429A6006E07B68A2
:104B70009A687B681B6842F404429A607B68DB6831
:104B8000022B04D17B681B684FF400625A607B687B
:104B90001B685B687A68126843F0007343F4004353
:104BA00053607B681B68DA687B681B6822F40042EC
:104BB000DA607B681A697B685B6942EA03017B689B
:104BC0009B691A027B681B680A43DA607B68D969B3
:104BD0007B681A6A7B681B680A431A607B681B68DB
:104BE0001A687B681B6842F001021A607B68002229
:104BF0005A647B68202283F841207B6800221A6374
:104C00007B68002283F84220002318460837BD46FF
:104C100080BD000080B588B002AFF8607A601A46A7
:104C20000B467B8113463B81FB6893F84130DBB236
:104C3000202B40F0DA80FB6893F84030012B01D143
:104C40000223D3E0FB68012283F84020FEF736FB05
:104C500078617B690093192301224FF40041F868C1
:104C600000F01BFF0346002B01D00123BEE0FB68D0
:104C7000212283F84120FB68102283F84220FB6840
:104C800000225A64FB687A685A62FB683A895A853E
:104C9000FB6800225A63FB685B8D9BB2FF2B0ED929
:104CA000FB68FF221A85FB681B8DDAB27989514BAC
:104CB00000934FF08073F86801F02AF96CE0FB680C
:104CC0005B8D9AB2FB681A85FB681B8DDAB2798915
:104CD000484B00934FF00073F86801F019F95BE05E
:104CE0007A69396AF86800F027FF0346002B01D083
:104CF00001237BE0FB685B6A1A78FB681B689A6299
:104D0000FB685B6A5A1CFB685A62FB685B8D9BB24E
:104D1000013B9AB2FB685A85FB681B8D013B9AB236
:104D2000FB681A85FB685B8D9BB2002B34D0FB6857
:104D30001B8D002B30D17B6900933B6A00228021C0
:104D4000F86800F0AAFE0346002B01D001234DE0D5
:104D5000FB685B8D9BB2FF2B0ED9FB68FF221A8587
:104D6000FB681B8DDAB27989002300934FF08073C2
:104D7000F86801F0CDF80FE0FB685B8D9AB2FB6834
:104D80001A85FB681B8DDAB27989002300934FF0F6
:104D90000073F86801F0BCF8FB685B8D9BB2002BD8
:104DA0009ED17A69396AF86800F00DFF0346002B3E
:104DB00001D001231AE0FB681B682022DA61FB683E
:104DC0001B685968FB681A680B4B0B405360FB6803
:104DD000202283F84120FB68002283F84220FB68F0
:104DE000002283F84020002300E0022318461837F1
:104DF000BD4680BD0020008000E800FE80B588B080
:104E000002AFF8607A601A460B467B8113463B81FD
:104E1000FB6893F84130DBB2202B40F0DB80FB686D
:104E200093F84030012B01D10223D4E0FB6801222A
:104E300083F84020FEF742FA78617B6900931923DA
:104E400001224FF40041F86800F027FE0346002BD2
:104E500001D00123BFE0FB68222283F84120FB68D8
:104E6000102283F84220FB6800225A64FB687A68AB
:104E70005A62FB683A895A85FB6800225A63FB68CC
:104E80005B8D9BB2FF2B0ED9FB68FF221A85FB6856
:104E90001B8DDAB27989524B00934FF08073F8681A
:104EA00001F036F86DE0FB685B8D9AB2FB681A85FD
:104EB000FB681B8DDAB27989494B00934FF0007380
:104EC000F86801F025F85CE07A69396AF86800F062
:104ED000BDFE0346002B01D001237CE0FB681B686C
:104EE0005A6AFB685B6AD2B21A70FB685B6A5A1C2A
:104EF000FB685A62FB681B8D013B9AB2FB681A85FE
:104F0000FB685B8D9BB2013B9AB2FB685A85FB68DC
:104F10005B8D9BB2002B34D0FB681B8D002B30D1F6
:104F20007B6900933B6A00228021F86800F0B5FDA0
:104F30000346002B01D001234DE0FB685B8D9BB243
:104F4000FF2B0ED9FB68FF221A85FB681B8DDAB296
:104F50007989002300934FF08073F86800F0D8FF40
:104F60000FE0FB685B8D9AB2FB681A85FB681B8DAE
:104F7000DAB27989002300934FF00073F86800F0EB
:104F8000C7FFFB685B8D9BB2002B9DD17A69396AA4
:104F9000F86800F018FE0346002B01D001231AE048
:104FA000FB681B682022DA61FB681B685968FB6894
:104FB0001A680C4B0B405360FB68202283F8412099
:104FC000FB68002283F84220FB68002283F840201F
:104FD000002300E0022318461837BD4680BD00BFFD
:104FE0000024008000E800FE80B584B000AF786047
:104FF0007B681B689B69FB607B681B681B68BB60E8
:105000007B685B6B002B05D07B685B6BBA68F968CB
:105010007868984700BF1037BD4680BD80B586B020
:1050200000AF78607B681B689B697B617B681B684D
:105030001B683B617B691B0A03F00103002B10D046
:105040003B69DB0903F00103002B0AD07B685B6C32
:1050500043F001027B685A647B681B684FF48072DE
:10506000DA617B699B0A03F00103002B10D03B69D6
:10507000DB0903F00103002B0AD07B685B6C43F073
:1050800008027B685A647B681B684FF48062DA61AF
:105090007B695B0A03F00103002B10D03B69DB093D
:1050A00003F00103002B0AD07B685B6C43F0020223
:1050B0007B685A647B681B684FF40072DA617B6816
:1050C0005B6CFB60FB6803F00B03002B03D0F968FB
:1050D000786800F089FB00BF1837BD4680BD80B4FA
:1050E00083B000AF786000BF0C37BD465DF8047B2D
:1050F000704780B483B000AF786000BF0C37BD4606
:105100005DF8047B704780B483B000AF78600B46D5
:10511000FB7013463B8000BF0C37BD465DF8047B37
:10512000704780B483B000AF786000BF0C37BD46D5
:105130005DF8047B704780B483B000AF786000BF37
:105140000C37BD465DF8047B704780B483B000AF78
:10515000786000BF0C37BD465DF8047B704780B5B2
:1051600086B000AFF860B9607A60FB68DB6A7B618B
:10517000BB683B61FB6893F84030012B01D10223EF
:10518000ECE0FB68012283F840203B695B0903F0F7
:105190000103002B09D07B685B0903F00103002B9E
:1051A00003D03969F86800F0BFF93B691B0903F0C7
:1051B0000103002B4DD07B681B0903F00103002B7A
:1051C00047D0FB685B8D9BB2002B28D1FB6893F81E
:1051D0004130DBB2282B08D17B69B3F1007F04D1C9
:1051E0003969F86800F0AAFA32E0FB6893F84130B8
:1051F000DBB2292B0ED17B6913F5803F0AD0FB6807
:105200001B681022DA61F86800F005FCF86800F00D
:105210002DF91DE0FB681B681022DA6196E0FB683F
:105220001B681022DA61FB685B6C43F00402FB68C8
:105230005A647B69002B04D07B69B3F1807F40F016
:105240008580FB685B6C1946F86800F0CDFA7DE05C
:105250007CE03B699B0803F00103002B30D07B68A6
:105260009B0803F00103002B2AD0FB685B8D9BB2E7
:10527000002B18D0FB681B685A6AFB685B6AD2B2C5
:105280001A70FB685B6A5A1CFB685A62FB681B8DCC
:10529000013B9AB2FB681A85FB685B8D9BB2013BB0
:1052A0009AB2FB685A85FB685B8D9BB2002B4FD18D
:1052B0007B6913F5803F4BD0F86800F0D7F847E0E2
:1052C0003B69DB0803F00103002B0AD07B68DB0895
:1052D00003F00103002B04D03969F86800F042F8AC
:1052E00037E03B695B0803F00103002B31D07B689A
:1052F0005B0803F00103002B2BD0FB685B8D9BB296
:10530000002B18D0FB685B6A1A78FB681B689A62EE
:10531000FB685B6A5A1CFB685A62FB685B8D9BB238
:10532000013B9AB2FB685A85FB681B8D013B9AB220
:10533000FB681A850DE07B69B3F1807F02D07B6941
:10534000002B06D1F86800F091F802E000BF00E001
:1053500000BFFB68002283F840200023184618375E
:10536000BD4680BD80B584B000AF786039607B6891
:1053700093F84130DBB203F02803282B6AD17B6815
:105380001B689B691B0CDBB203F00103FB737B689A
:105390001B689B691B0C9BB203F0FE03BB817B68FF
:1053A0001B689B689BB2C3F309037B817B681B6806
:1053B000DB689BB203F0FE033B817B68DB68022B5A
:1053C00038D17B89DB099AB2BB8953409BB203F089
:1053D0000603002B1CD17B89BB817B689B6C5A1C0C
:1053E0007B689A647B689B6C022B3BD17B680022B4
:1053F0009A647B681B680822DA617B68002283F864
:105400004020BA89FB7B19467868FFF77CFE29E0CB
:105410003B89BB814FF40041786800F0ABFD7B68AD
:10542000002283F84020BA89FB7B19467868FFF791
:105430006AFE17E04FF40041786800F09BFD7B683E
:10544000002283F84020BA89FB7B19467868FFF771
:105450005AFE07E07B681B680822DA617B6800223D
:1054600083F8402000BF1037BD4680BD80B584B0B2
:1054700000AF78607B681B681B68FB607B6800225C
:1054800083F84220FB689B0B03F00103002B08D03C
:105490007B681B681A687B681B6822F480421A606C
:1054A0000DE0FB68DB0B03F00103002B07D07B68EA
:1054B0001B681A687B681B6822F400421A607B68CC
:1054C00093F84130DBB2292B12D17B68282283F874
:1054D00041207B6821221A630121786800F04AFD8F
:1054E0007B68002283F840207868FFF7F8FD17E01A
:1054F0007B6893F84130DBB22A2B11D17B682822DC
:1055000083F841207B6822221A630221786800F028
:1055100031FD7B68002283F840207868FFF7E9FDC1
:1055200000BF1037BD4680BD80B586B000AF786043
:1055300039607B681B681B683B613B687B617B68EB
:1055400093F84130FB737B681B682022DA61FB7B98
:10555000212B02D0FB7B292B08D148F2010178686E
:1055600000F008FD7B6821221A630DE0FB7B222BF3
:1055700002D0FB7B2A2B07D148F20201786800F0A9
:10558000F9FC7B6822221A637B681B685A687B6877
:105590001B6842F400425A607B681B6859687B684C
:1055A0001A68644B0B405360786800F034FA3B692A
:1055B0009B0B03F00103002B13D07B681B681A6858
:1055C0007B681B6822F480421A607B689B6B002B0F
:1055D00020D07B689B6B1B685B689AB27B685A859E
:1055E00018E03B69DB0B03F00103002B12D07B6852
:1055F0001B681A687B681B6822F400421A607B688B
:10560000DB6B002B06D07B68DB6B1B685B689AB298
:105610007B685A857B699B0803F00103002B20D02F
:105620007B6923F004037B617B681B685A6A7B6893
:105630005B6AD2B21A707B685B6A5A1C7B685A62DA
:105640007B681B8D002B0CD07B681B8D013B9AB2B5
:105650007B681A857B685B8D9BB2013B9AB27B6845
:105660005A857B685B8D9BB2002B05D07B685B6C99
:1056700043F004027B685A647B68002283F842206E
:105680007B6800225A637B685B6C002B10D07B68C0
:105690005B6C1946786800F0A7F87B6893F8413096
:1056A000DBB2282B41D17969786800F047F83CE0FB
:1056B0007B68DB6A13F5803F14D07868FFF7D6FE6D
:1056C0007B681D4ADA627B68202283F841207B6870
:1056D00000221A637B68002283F840207868FFF775
:1056E00020FD22E07B6893F84130DBB2222B0ED103
:1056F0007B68202283F841207B6800221A637B6844
:10570000002283F840207868FFF7F3FC0DE07B6807
:10571000202283F841207B6800221A637B680022E4
:1057200083F840207868FFF7DAFC00BF1837BD46E1
:1057300080BD00BF00E800FE0000FFFF80B582B022
:1057400000AF786039607B68264ADA627B680022A5
:105750001A637B68202283F841207B68002283F84B
:1057600042207B6800225A633B689B0803F00103D8
:10577000002B22D07B681B685A6A7B685B6AD2B2B6
:105780001A707B685B6A5A1C7B685A627B681B8D47
:10579000002B12D07B681B8D013B9AB27B681A8567
:1057A0007B685B8D9BB2013B9AB27B685A857B68B4
:1057B0005B6C43F004027B685A6448F2030178682A
:1057C00000F0D8FB7B681B681022DA617B6800223E
:1057D00083F840207868FFF7A4FC00BF0837BD4677
:1057E00080BD00BF0000FFFF80B584B000AF7860CF
:1057F00039607B6893F84130FB737B68002283F843
:1058000042207B686D4ADA627B6800225A857B6899
:105810005A6C3B681A437B685A64FB7B282B05D083
:10582000FB7B292B02D0FB7B2A2B0BD10321786831
:1058300000F0A0FB7B68282283F841207B68604A47
:105840005A6330E048F20301786800F093FB78680F
:1058500000F0E1F87B6893F84130DBB2602B1FD099
:105860007B68202283F841207B681B689B6903F0DA
:105870002003202B14D17B681B689B6903F0100365
:10588000102B09D17B681B681022DA617B685B6C86
:1058900043F004027B685A647B681B682022DA614B
:1058A0007B6800225A637B681B6BBB607B689B6BC9
:1058B000002B39D0BB68112B02D0BB68212B33D110
:1058C0007B681B681B6803F48043B3F5804F07D1E6
:1058D0007B681B681A687B681B6822F480421A6028
:1058E0007B689B6B1846FEF74DFF0346012B17D0D4
:1058F0007B689B6B334A5A637B68002283F84020A5
:105900007B689B6B1846FEF7FFFE0346002B4DD0CD
:105910007B689B6B5B6B7A68926B1046984745E09F
:10592000786800F051F841E07B68DB6B002B39D0E0
:10593000BB68122B02D0BB68222B33D17B681B685B
:105940001B6803F40043B3F5004F07D17B681B6865
:105950001A687B681B6822F400421A607B68DB6B64
:105960001846FEF70FFF0346012B17D07B68DB6B51
:10597000144A5A637B68002283F840207B68DB6B03
:105980001846FEF7C1FE0346002B11D07B68DB6B87
:105990005B6B7A68D26B1046984709E0786800F034
:1059A00013F805E0786800F00FF802E000BF00E0AF
:1059B00000BF00BF1037BD4680BD00BF0000FFFF25
:1059C0005F5100085F5A000880B582B000AF786070
:1059D0007B6893F84130DBB2602B0ED17B682022CC
:1059E00083F841207B6800221A637B68002283F8D9
:1059F00040207868FFF7A9FB09E07B6800221A6362
:105A00007B68002283F840207868FFF794FB00BF92
:105A10000837BD4680BD80B483B000AF78607B6836
:105A20001B689B6903F00203022B03D17B681B6890
:105A300000229A627B681B689B6903F00103012BBB
:105A400007D07B681B689A697B681B6842F001027B
:105A50009A6100BF0C37BD465DF8047B704780B586
:105A600084B000AF78607B685B6AFB60FB689B6B0F
:105A7000002B03D0FB689B6B00225A63FB68DB6B37
:105A8000002B03D0FB68DB6B00225A63F868FFF73A
:105A90009BFF00BF1037BD4680BD80B584B000AF0E
:105AA000F860B9603B601346FB7131E03B68B3F1CD
:105AB000FF3F2DD0FDF702FC0246BB69D31A3A68BE
:105AC0009A4202D33B68002B22D1FB681B689A697B
:105AD000BB681340BA689A420CBF01230023DBB2B3
